{
  "_format": "hh-sol-artifact-1",
  "contractName": "CarbonAuction",
  "sourceName": "contracts/CarbonAuction.sol",
  "abi": [
    {
      "inputs": [],
      "name": "ReentrancyGuardReentrantCall",
      "type": "error"
    },
    {
      "anonymous": false,
      "inputs": [
        {
          "indexed": false,
          "internalType": "uint256",
          "name": "auctionId",
          "type": "uint256"
        },
        {
          "indexed": false,
          "internalType": "address",
          "name": "seller",
          "type": "address"
        },
        {
          "indexed": false,
          "internalType": "address",
          "name": "nftAddress",
          "type": "address"
        },
        {
          "indexed": false,
          "internalType": "uint256",
          "name": "tokenId",
          "type": "uint256"
        },
        {
          "indexed": false,
          "internalType": "uint256",
          "name": "minBid",
          "type": "uint256"
        },
        {
          "indexed": false,
          "internalType": "uint256",
          "name": "endTime",
          "type": "uint256"
        }
      ],
      "name": "AuctionCreated",
      "type": "event"
    },
    {
      "anonymous": false,
      "inputs": [
        {
          "indexed": false,
          "internalType": "uint256",
          "name": "auctionId",
          "type": "uint256"
        },
        {
          "indexed": false,
          "internalType": "address",
          "name": "winner",
          "type": "address"
        },
        {
          "indexed": false,
          "internalType": "uint256",
          "name": "amount",
          "type": "uint256"
        }
      ],
      "name": "AuctionEnded",
      "type": "event"
    },
    {
      "anonymous": false,
      "inputs": [
        {
          "indexed": false,
          "internalType": "uint256",
          "name": "auctionId",
          "type": "uint256"
        },
        {
          "indexed": false,
          "internalType": "address",
          "name": "bidder",
          "type": "address"
        },
        {
          "indexed": false,
          "internalType": "uint256",
          "name": "amount",
          "type": "uint256"
        }
      ],
      "name": "BidPlaced",
      "type": "event"
    },
    {
      "inputs": [],
      "name": "auctionCount",
      "outputs": [
        {
          "internalType": "uint256",
          "name": "",
          "type": "uint256"
        }
      ],
      "stateMutability": "view",
      "type": "function"
    },
    {
      "inputs": [
        {
          "internalType": "uint256",
          "name": "",
          "type": "uint256"
        }
      ],
      "name": "auctions",
      "outputs": [
        {
          "internalType": "address",
          "name": "seller",
          "type": "address"
        },
        {
          "internalType": "address",
          "name": "nftAddress",
          "type": "address"
        },
        {
          "internalType": "uint256",
          "name": "tokenId",
          "type": "uint256"
        },
        {
          "internalType": "uint256",
          "name": "minBid",
          "type": "uint256"
        },
        {
          "internalType": "uint256",
          "name": "endTime",
          "type": "uint256"
        },
        {
          "internalType": "address",
          "name": "highestBidder",
          "type": "address"
        },
        {
          "internalType": "uint256",
          "name": "highestBid",
          "type": "uint256"
        },
        {
          "internalType": "bool",
          "name": "active",
          "type": "bool"
        },
        {
          "internalType": "bool",
          "name": "ended",
          "type": "bool"
        }
      ],
      "stateMutability": "view",
      "type": "function"
    },
    {
      "inputs": [
        {
          "internalType": "address",
          "name": "_nftAddress",
          "type": "address"
        },
        {
          "internalType": "uint256",
          "name": "_tokenId",
          "type": "uint256"
        },
        {
          "internalType": "uint256",
          "name": "_minBid",
          "type": "uint256"
        },
        {
          "internalType": "uint256",
          "name": "_duration",
          "type": "uint256"
        }
      ],
      "name": "createAuction",
      "outputs": [],
      "stateMutability": "nonpayable",
      "type": "function"
    },
    {
      "inputs": [
        {
          "internalType": "uint256",
          "name": "_auctionId",
          "type": "uint256"
        }
      ],
      "name": "endAuction",
      "outputs": [],
      "stateMutability": "nonpayable",
      "type": "function"
    },
    {
      "inputs": [
        {
          "internalType": "uint256",
          "name": "",
          "type": "uint256"
        },
        {
          "internalType": "address",
          "name": "",
          "type": "address"
        }
      ],
      "name": "pendingReturns",
      "outputs": [
        {
          "internalType": "uint256",
          "name": "",
          "type": "uint256"
        }
      ],
      "stateMutability": "view",
      "type": "function"
    },
    {
      "inputs": [
        {
          "internalType": "uint256",
          "name": "_auctionId",
          "type": "uint256"
        }
      ],
      "name": "placeBid",
      "outputs": [],
      "stateMutability": "payable",
      "type": "function"
    },
    {
      "inputs": [
        {
          "internalType": "uint256",
          "name": "_auctionId",
          "type": "uint256"
        }
      ],
      "name": "withdraw",
      "outputs": [],
      "stateMutability": "nonpayable",
      "type": "function"
    }
  ],
  "bytecode": "0x608060405234801561000f575f80fd5b5060017f9b779b17422d0df92223018b32b4d1fa46e071723d6817e2486d003becc55f0055610c8d806100415f395ff3fe60806040526004361061006e575f3560e01c806361beb1d71161004c57806361beb1d71461018b5780638ddac1ef146101aa5780639979ef45146101e0578063b9a2de3a146101f3575f80fd5b80632ad71573146100725780632e1a7d4d1461009a578063571a26a0146100bb575b5f80fd5b34801561007d575f80fd5b5061008760015481565b6040519081526020015b60405180910390f35b3480156100a5575f80fd5b506100b96100b4366004610b20565b610212565b005b3480156100c6575f80fd5b506101326100d5366004610b20565b5f60208190529081526040902080546001820154600283015460038401546004850154600586015460068701546007909701546001600160a01b039687169795871696949593949293919092169160ff8082169161010090041689565b604080516001600160a01b039a8b168152988a1660208a01528801969096526060870194909452608086019290925290941660a084015260c083019390935291151560e082015290151561010082015261012001610091565b348015610196575f80fd5b506100b96101a5366004610b4b565b6102d9565b3480156101b5575f80fd5b506100876101c4366004610b83565b600260209081525f928352604080842090915290825290205481565b6100b96101ee366004610b20565b610695565b3480156101fe575f80fd5b506100b961020d366004610b20565b610894565b61021a610ad4565b5f8181526002602090815260408083203384529091529020548061027b5760405162461bcd60e51b81526020600482015260136024820152724e6f7468696e6720746f20776974686472617760681b60448201526064015b60405180910390fd5b5f82815260026020908152604080832033808552925280832083905551909183156108fc02918491818181858888f193505050501580156102be573d5f803e3d5ffd5b50506102d660015f80516020610c3883398151915255565b50565b6040516331a9108f60e11b815260048101849052849033906001600160a01b03831690636352211e90602401602060405180830381865afa158015610320573d5f803e3d5ffd5b505050506040513d601f19601f820116820180604052508101906103449190610bb1565b6001600160a01b03161461038a5760405162461bcd60e51b815260206004820152600d60248201526c2737ba103a34329037bbb732b960991b6044820152606401610272565b60405163020604bf60e21b81526004810185905230906001600160a01b0383169063081812fc90602401602060405180830381865afa1580156103cf573d5f803e3d5ffd5b505050506040513d601f19601f820116820180604052508101906103f39190610bb1565b6001600160a01b0316148061046f575060405163e985e9c560e01b81523360048201523060248201526001600160a01b0382169063e985e9c590604401602060405180830381865afa15801561044b573d5f803e3d5ffd5b505050506040513d601f19601f8201168201806040525081019061046f9190610bd3565b6104aa5760405162461bcd60e51b815260206004820152600c60248201526b139bdd08185c1c1c9bdd995960a21b6044820152606401610272565b6040516323b872dd60e01b8152336004820152306024820152604481018590526001600160a01b038216906323b872dd906064015f604051808303815f87803b1580156104f5575f80fd5b505af1158015610507573d5f803e3d5ffd5b505060018054925090505f61051b83610c06565b909155505060408051610120810182523381526001600160a01b038716602082015290810185905260608101849052608081016105588442610c1e565b81525f6020808301829052604080840183905260016060808601829052608095860185905281548552848452828520875181546001600160a01b03199081166001600160a01b0392831617835589870151838601805483169184169190911790558986015160028401558984015160038401558989015160048085019190915560a0808c01516005860180549094169085161790925560c0808c0151600686015560e08c0151600790950180546101009d8e015161ffff1990911696151561ff00191696909617951515909c0294909417909a559354808852968590209098015484519687523395870195909552968c1692850192909252908301899052928201879052918101919091527f06b9e486c68303eb64052e0493f906f3d93a1b7149b6b8dcff221aebd16c3513910160405180910390a15050505050565b61069d610ad4565b5f818152602081905260409020600781015460ff166106f35760405162461bcd60e51b815260206004820152601260248201527141756374696f6e206e6f742061637469766560701b6044820152606401610272565b806004015442106107365760405162461bcd60e51b815260206004820152600d60248201526c105d58dd1a5bdb88195b991959609a1b6044820152606401610272565b80600301543410156107785760405162461bcd60e51b815260206004820152600b60248201526a42696420746f6f206c6f7760a81b6044820152606401610272565b806006015434116107cb5760405162461bcd60e51b815260206004820152601e60248201527f426964206c6f776572207468616e2063757272656e74206869676865737400006044820152606401610272565b60058101546001600160a01b03161561081e5760068101545f83815260026020908152604080832060058601546001600160a01b0316845290915281208054909190610818908490610c1e565b90915550505b6005810180546001600160a01b0319163390811790915534600683018190556040805185815260208101939093528201527f0e54eff26401bf69b81b26f60bd85ef47f5d85275c1d268d84f68d6897431c47906060015b60405180910390a1506102d660015f80516020610c3883398151915255565b61089c610ad4565b5f818152602081905260409020600781015460ff166108f25760405162461bcd60e51b815260206004820152601260248201527141756374696f6e206e6f742061637469766560701b6044820152606401610272565b806004015442101561093e5760405162461bcd60e51b8152602060048201526015602482015274105d58dd1a5bdb881b9bdd08195b991959081e595d605a1b6044820152606401610272565b60078101805461ffff191661010017905560058101546001600160a01b031615610a15576001810154600582015460028301546040516323b872dd60e01b81523060048201526001600160a01b03928316602482015260448101919091529116906323b872dd906064015f604051808303815f87803b1580156109bf575f80fd5b505af11580156109d1573d5f803e3d5ffd5b5050825460068401546040516001600160a01b03909216935080156108fc029250905f818181858888f19350505050158015610a0f573d5f803e3d5ffd5b50610a86565b6001810154815460028301546040516323b872dd60e01b81523060048201526001600160a01b03928316602482015260448101919091529116906323b872dd906064015f604051808303815f87803b158015610a6f575f80fd5b505af1158015610a81573d5f803e3d5ffd5b505050505b60058101546006820154604080518581526001600160a01b0390931660208401528201527fd2aa34a4fdbbc6dff6a3e56f46e0f3ae2a31d7785ff3487aa5c95c642acea50190606001610875565b610adc610aef565b60025f80516020610c3883398151915255565b5f80516020610c3883398151915254600203610b1e57604051633ee5aeb560e01b815260040160405180910390fd5b565b5f60208284031215610b30575f80fd5b5035919050565b6001600160a01b03811681146102d6575f80fd5b5f805f8060808587031215610b5e575f80fd5b8435610b6981610b37565b966020860135965060408601359560600135945092505050565b5f8060408385031215610b94575f80fd5b823591506020830135610ba681610b37565b809150509250929050565b5f60208284031215610bc1575f80fd5b8151610bcc81610b37565b9392505050565b5f60208284031215610be3575f80fd5b81518015158114610bcc575f80fd5b634e487b7160e01b5f52601160045260245ffd5b5f60018201610c1757610c17610bf2565b5060010190565b80820180821115610c3157610c31610bf2565b9291505056fe9b779b17422d0df92223018b32b4d1fa46e071723d6817e2486d003becc55f00a26469706673582212201004cf144cf9f796c3f989f29a40c0458baecb4823e93d1606a7ff4bbeb189da64736f6c63430008180033",
  "linkReferences": {},
  "deployedLinkReferences": {}
}